{
  "contractName": "Healthcare",
  "abi": [
    {
      "inputs": [
        {
          "internalType": "address",
          "name": "",
          "type": "address"
        }
      ],
      "name": "patients",
      "outputs": [
        {
          "internalType": "string",
          "name": "name",
          "type": "string"
        },
        {
          "internalType": "uint256",
          "name": "age",
          "type": "uint256"
        },
        {
          "internalType": "string",
          "name": "medicalHistory",
          "type": "string"
        }
      ],
      "stateMutability": "view",
      "type": "function",
      "constant": true
    },
    {
      "inputs": [
        {
          "internalType": "string",
          "name": "_name",
          "type": "string"
        },
        {
          "internalType": "uint256",
          "name": "_age",
          "type": "uint256"
        },
        {
          "internalType": "string",
          "name": "_medicalHistory",
          "type": "string"
        }
      ],
      "name": "addPatient",
      "outputs": [],
      "stateMutability": "nonpayable",
      "type": "function"
    },
    {
      "inputs": [],
      "name": "getPatient",
      "outputs": [
        {
          "internalType": "string",
          "name": "",
          "type": "string"
        },
        {
          "internalType": "uint256",
          "name": "",
          "type": "uint256"
        },
        {
          "internalType": "string",
          "name": "",
          "type": "string"
        }
      ],
      "stateMutability": "view",
      "type": "function",
      "constant": true
    }
  ],
  "bytecode": "0x608060405234801561001057600080fd5b50610899806100206000396000f3fe608060405234801561001057600080fd5b50600436106100415760003560e01c80630869cfbc146100465780637b0f9a3614610078578063d65da44a14610098575b600080fd5b610060600480360381019061005b9190610564565b6100b4565b60405161006f93929190610654565b60405180910390f35b6100806101ee565b60405161008f93929190610654565b60405180910390f35b6100b260048036038101906100ad919061058d565b61038a565b005b60006020528060005260406000206000915090508060000180546100d790610794565b80601f016020809104026020016040519081016040528092919081815260200182805461010390610794565b80156101505780601f1061012557610100808354040283529160200191610150565b820191906000526020600020905b81548152906001019060200180831161013357829003601f168201915b50505050509080600101549080600201805461016b90610794565b80601f016020809104026020016040519081016040528092919081815260200182805461019790610794565b80156101e45780601f106101b9576101008083540402835291602001916101e4565b820191906000526020600020905b8154815290600101906020018083116101c757829003601f168201915b5050505050905083565b60606000606060008060003373ffffffffffffffffffffffffffffffffffffffff1673ffffffffffffffffffffffffffffffffffffffff16815260200190815260200160002060405180606001604052908160008201805461024f90610794565b80601f016020809104026020016040519081016040528092919081815260200182805461027b90610794565b80156102c85780601f1061029d576101008083540402835291602001916102c8565b820191906000526020600020905b8154815290600101906020018083116102ab57829003601f168201915b50505050508152602001600182015481526020016002820180546102eb90610794565b80601f016020809104026020016040519081016040528092919081815260200182805461031790610794565b80156103645780601f1061033957610100808354040283529160200191610364565b820191906000526020600020905b81548152906001019060200180831161034757829003601f168201915b505050505081525050905080600001518160200151826040015193509350935050909192565b6040518060600160405280848152602001838152602001828152506000803373ffffffffffffffffffffffffffffffffffffffff1673ffffffffffffffffffffffffffffffffffffffff16815260200190815260200160002060008201518160000190805190602001906103ff92919061042f565b5060208201518160010155604082015181600201908051906020019061042692919061042f565b50905050505050565b82805461043b90610794565b90600052602060002090601f01602090048101928261045d57600085556104a4565b82601f1061047657805160ff19168380011785556104a4565b828001600101855582156104a4579182015b828111156104a3578251825591602001919060010190610488565b5b5090506104b191906104b5565b5090565b5b808211156104ce5760008160009055506001016104b6565b5090565b60006104e56104e0846106ca565b610699565b9050828152602081018484840111156104fd57600080fd5b610508848285610752565b509392505050565b60008135905061051f81610835565b92915050565b600082601f83011261053657600080fd5b81356105468482602086016104d2565b91505092915050565b60008135905061055e8161084c565b92915050565b60006020828403121561057657600080fd5b600061058484828501610510565b91505092915050565b6000806000606084860312156105a257600080fd5b600084013567ffffffffffffffff8111156105bc57600080fd5b6105c886828701610525565b93505060206105d98682870161054f565b925050604084013567ffffffffffffffff8111156105f657600080fd5b61060286828701610525565b9150509250925092565b6000610617826106fa565b6106218185610705565b9350610631818560208601610761565b61063a81610824565b840191505092915050565b61064e81610748565b82525050565b6000606082019050818103600083015261066e818661060c565b905061067d6020830185610645565b818103604083015261068f818461060c565b9050949350505050565b6000604051905081810181811067ffffffffffffffff821117156106c0576106bf6107f5565b5b8060405250919050565b600067ffffffffffffffff8211156106e5576106e46107f5565b5b601f19601f8301169050602081019050919050565b600081519050919050565b600082825260208201905092915050565b600061072182610728565b9050919050565b600073ffffffffffffffffffffffffffffffffffffffff82169050919050565b6000819050919050565b82818337600083830152505050565b60005b8381101561077f578082015181840152602081019050610764565b8381111561078e576000848401525b50505050565b600060028204905060018216806107ac57607f821691505b602082108114156107c0576107bf6107c6565b5b50919050565b7f4e487b7100000000000000000000000000000000000000000000000000000000600052602260045260246000fd5b7f4e487b7100000000000000000000000000000000000000000000000000000000600052604160045260246000fd5b6000601f19601f8301169050919050565b61083e81610716565b811461084957600080fd5b50565b61085581610748565b811461086057600080fd5b5056fea26469706673582212202e739095d965996e5dc60bf7edd59f93010a0893178ccb6ebfa188179ed22ecb64736f6c63430008000033",
  "immutableReferences": {},
  "source": "// SPDX-License-Identifier: MIT\r\npragma solidity ^0.8.0;\r\n\r\ncontract Healthcare {\r\n    struct Patient {\r\n        string name;\r\n        uint256 age;\r\n        string medicalHistory;\r\n    }\r\n\r\n    mapping(address => Patient) public patients;\r\n\r\n    function addPatient(string memory _name, uint256 _age, string memory _medicalHistory) public {\r\n        patients[msg.sender] = Patient(_name, _age, _medicalHistory);\r\n    }\r\n\r\n    function getPatient() public view returns (string memory, uint256, string memory) {\r\n        Patient memory patient = patients[msg.sender];\r\n        return (patient.name, patient.age, patient.medicalHistory);\r\n    }\r\n}\r\n",
  "sourcePath": "C:\\Users\\Hp\\HealthcareBlockchain\\contracts\\Healthcare.sol",
  "compiler": {
    "name": "solc",
    "version": "0.8.0+commit.c7dfd78e.Emscripten.clang"
  },
  "schemaVersion": "3.4.16",
  "updatedAt": "2025-07-03T18:07:52.932Z",
  "networkType": "ethereum",
  "devdoc": {
    "kind": "dev",
    "methods": {},
    "version": 1
  },
  "userdoc": {
    "kind": "user",
    "methods": {},
    "version": 1
  }
}